:100000000F0EC16E816A9380896A92909292929447
:10001000000E206E23EF00F081B015D0460E156E55
:100020006F0E146E81B002D00EEF00F000000000E1
:100030000000142EF7D7152EF3D7202A030E2062C6
:1000400023EF00F0206A000E206239EF00F0896A89
:10005000460E156E6F0E146E81B002D00EEF00F0DA
:10006000000000000000142EF7D7152EF3D70CEF78
:1000700000F0010E206272EF00F0896A89808C0E18
:10008000156E6F0E146E81B002D00EEF00F00000FE
:1000900000000000142EF7D7152EF3D7896A898245
:1000A0008C0E156E6F0E146E81B002D00EEF00F044
:1000B000000000000000142EF7D7152EF3D7896A30
:1000C00089848C0E156E6F0E146E81B002D00EEF07
:1000D00000F0000000000000142EF7D7152EF3D713
:1000E0000CEF00F0896A89808C0E156E6F0E146E0D
:1000F00081B002D00EEF00F0000000000000142ECE
:10010000F7D7152EF3D78C0E156E6F0E146E81B0C7
:1001100002D00EEF00F0000000000000142EF7D710
:10012000152EF3D7896A898089828C0E156E6F0E21
:10013000146E81B002D00EEF00F00000000000004D
:10014000142EF7D7152EF3D78C0E156E6F0E146E76
:1001500081B002D00EEF00F0000000000000142E6D
:10016000F7D7152EF3D7896A89848C0E156E6F0E1A
:10017000146E81B002D00EEF00F00000000000000D
:10018000142EF7D7152EF3D7896A8C0E156E6F0EC5
:10019000146E81B002D00EEF00F0000000000000ED
:1001A000142EF7D7152EF3D78C0E156E6F0E146E16
:1001B00081B002D00EEF00F0000000000000142E0D
:1001C000F7D7152EF3D7896A89848C0E156E6F0EBA
:1001D000146E81B002D00EEF00F0000000000000AD
:1001E000142EF7D7152EF3D7896A8C0E156E6F0E65
:1001F000146E81B002D00EEF00F00000000000008D
:10020000142EF7D7152EF3D78C0E156E6F0E146EB5
:1002100081B002D00EEF00F0000000000000142EAC
:10022000F7D7152EF3D7896A89848C0E156E6F0E59
:10023000146E81B002D00EEF00F00000000000004C
:0C024000142EF7D7152EF3D70CEF00F0AA
:020000040030CA
:03000100081F1EB7
:020005008381F5
:060008000FC00FE00F40E5
:00000001FF
