:0400000007EF00F016
:100008002070F29210000F0EC16E956A8C6A938070
:10001800D09EF292F28EF2888C6A7D0E156E6F0E6B
:10002800146E000000000000000000000000142E04
:10003800F8D7152EF4D720B04DEF01F08C8E7D0E39
:10004800156E6F0E146E0000000000000000000026
:100058000000142EF8D7152EF4D78C6A20B04DEF77
:1000680001F08C8C7D0E156E6F0E146E0000000072
:100078000000000000000000142EF8D7152EF4D759
:100088008C6A20B04DEF01F08C8E8C8C7D0E156E35
:100098006F0E146E00000000000000000000000059
:1000A800142EF8D7152EF4D78C6A20B04DEF01F036
:1000B8008C8A7D0E156E6F0E146E00000000000015
:1000C800000000000000142EF8D7152EF4D78C6A13
:1000D80020B04DEF01F08C8A8C8E7D0E156E6F0E60
:1000E800146E000000000000000000000000142E44
:1000F800F8D7152EF4D78C6A20B04DEF01F08C8A12
:100108008C8C7D0E156E6F0E146E000000000000C2
:10011800000000000000142EF8D7152EF4D78C6AC2
:1001280020B04DEF01F08C8A8C8C8C8E7D0E156E74
:100138006F0E146E000000000000000000000000B8
:10014800142EF8D7152EF4D78C6A20B04DEF01F095
:100158008C887D0E156E6F0E146E00000000000076
:10016800000000000000142EF8D7152EF4D78C6A72
:1001780020B04DEF01F08C888C8E7D0E156E6F0EC1
:10018800146E000000000000000000000000142EA3
:10019800F8D7152EF4D78C6A20B04DEF01F08C8873
:1001A8008C8C7D0E156E6F0E146E00000000000022
:1001B800000000000000142EF8D7152EF4D78C6A22
:1001C80020B04DEF01F08C888C8C8C8E7D0E156ED6
:1001D8006F0E146E00000000000000000000000018
:1001E800142EF8D7152EF4D78C6A20B04DEF01F0F5
:1001F8008C888C8A7D0E156E6F0E146E00000000C0
:100208000000000000000000142EF8D7152EF4D7C7
:100218008C6A20B04DEF01F08C888C8A8C8E7D0E14
:10022800156E6F0E146E0000000000000000000044
:100238000000142EF8D7152EF4D78C6A20B04DEF95
:1002480001F08C888C8A8C8C7D0E156E6F0E146E66
:10025800000000000000000000000000142EF8D785
:10026800152EF4D78C6A20B04DEF01F08C888C8A5B
:100278008C8C8C8E7D0E156E6F0E146E0000000037
:100288000000000000000000142EF8D7152EF4D747
:100298008C6A20A010EF00F08C888C8A8C8C8C8E55
:1002A8007D0E156E6F0E146E000000000000000039
:1002B80000000000142EF8D7152EF4D78C6A20A061
:1002C80010EF00F08C888C8A8C8C7D0E156E6F0E6A
:1002D800146E000000000000000000000000142E52
:1002E800F8D7152EF4D78C6A20A010EF00F08C8870
:1002F8008C8A8C8E7D0E156E6F0E146E00000000B9
:100308000000000000000000142EF8D7152EF4D7C6
:100318008C6A20A010EF00F08C888C8A7D0E156EF8
:100328006F0E146E000000000000000000000000C6
:10033800142EF8D7152EF4D78C6A20A010EF00F0F1
:100348008C888C8A7D0E156E6F0E146E000000006E
:100358000000000000000000142EF8D7152EF4D776
:100368008C6A20A010EF00F08C888C8C8C8E7D0E0F
:10037800156E6F0E146E00000000000000000000F3
:100388000000142EF8D7152EF4D78C6A20A010EF91
:1003980000F08C888C8C7D0E156E6F0E146E00002C
:1003A80000000000000000000000142EF8D7152EF1
:1003B800F4D78C6A20A010EF00F08C888C8E7D0E0C
:1003C800156E6F0E146E00000000000000000000A3
:1003D8000000142EF8D7152EF4D78C6A20A010EF41
:1003E80000F08C887D0E156E6F0E146E00000000F4
:1003F8000000000000000000142EF8D7152EF4D7D6
:100408008C6A20A010EF00F08C8A8C8C8C8E7D0E6C
:10041800156E6F0E146E0000000000000000000052
:100428000000142EF8D7152EF4D78C6A20A010EFF0
:1004380000F08C8A8C8C7D0E156E6F0E146E000089
:1004480000000000000000000000142EF8D7152E50
:10045800F4D78C6A20A010EF00F08C8A8C8E7D0E69
:10046800156E6F0E146E0000000000000000000002
:100478000000142EF8D7152EF4D78C6A20A010EFA0
:1004880000F08C8A7D0E156E6F0E146E0000000051
:100498000000000000000000142EF8D7152EF4D735
:1004A8008C6A20A010EF00F08C8E8C8C7D0E156E5F
:1004B8006F0E146E00000000000000000000000035
:1004C800142EF8D7152EF4D78C6A20A010EF00F060
:1004D8008C8C7D0E156E6F0E146E000000000000EF
:1004E800000000000000142EF8D7152EF4D78C6AEF
:1004F80020A010EF00F08C8E7D0E156E6F0E146E1E
:10050800000000000000000000000000142EF8D7D2
:0A051800152EF4D78C6A4DEF01F0A8
:020000040030CA
:03000100081F1EB7
:020005008381F5
:060008000FC00FE00F40E5
:00000001FF
