:100000000F0EC16E816A9380896A92909292929447
:10001000010E206E81B0FED700D0000E206221EFCD
:1000200000F0896A460E156E6F0E146E0000000017
:10003000000000000000142EF9D7152EF5D75AEF56
:1000400000F0010E206236EF00F0896A8980460ECA
:10005000156E6F0E146E000000000000000000001E
:10006000142EF9D7152EF5D75AEF00F0020E2062A4
:100070004BEF00F0896A8982460E156E6F0E146E82
:1000800000000000000000000000142EF9D7152E1B
:10009000F5D75AEF00F0896A8984460E156E6F0E07
:1000A000146E00000000000000000000142EF9D7BC
:1000B000152EF5D7202A040E206260EF00F0206A8A
:1000C000320E156E6F0E146E00000000000000006E
:0C00D0000000142EF9D7152EF5D79CD790
:020000040030CA
:03000100081F1EB7
:020005008381F5
:060008000FC00FE00F40E5
:00000001FF
